S012000046696E616C20636F64652E737265636D
S11300000C943C000C9459000C9459000C94590025
S11300100C9459000C9459000C9459000C945900F8
S11300200C9459000C9459000C9459000C945900E8
S11300300C9459000C9459000C9459000C945900D8
S11300400C9459000C9459000C9459000C945900C8
S11300500C9459001303FB02FE020103040307037B
S11300600A030D031003C103A903AC03AF03B203D6
S1130070B503B803BB03BE0311241FBECFE5D8E00C
S1130080DEBFCDBF11E0A0E6B0E0E6E7FAE002C0D3
S113009005900D92AE3DB107D9F721E0AEEDB1E088
S11300A001C01D92AE3DB207E1F70E94E6010C9437
S11300B039050C94000095B39F7795BB982F907FDA
S11300C092BB95B3906495BBEFECF7E03197F1F7F1
S11300D000C0000095B39F7B95BB8295807F82BB57
S11300E085B3806485BB8FEC97E00197F1F700C07E
S11300F0000085B38F7B85BB08958FEF81BB85B3EB
S11301008F7B85BB83E30E945B0082E30E945B00DC
S113011088E20E945B008EE00E945B0081E00E9406
S11301205B008FE99FE00197F1F700C0000008959C
S11301308EEF88BBB49908C08FE295E70197F1F779
S113014000C0000087E30895B59908C08FE295E7E1
S11301500197F1F700C0000088E30895B69908C03C
S11301608FE295E70197F1F700C0000089E3089555
S1130170B79908C08FE295E70197F1F700C0000036
S11301808FE208958DEF88BBB49908C08FE295E79C
S11301900197F1F700C0000084E30895B59908C001
S11301A08FE295E70197F1F700C0000085E3089519
S11301B0B69908C08FE295E70197F1F700C00000F7
S11301C086E30895B79908C08FE295E70197F1F7A0
S11301D000C0000088E508958BEF88BBB49908C07F
S11301E08FE295E70197F1F700C0000081E30895DD
S11301F0B59908C08FE295E70197F1F700C00000B8
S113020082E30895B69908C08FE295E70197F1F764
S113021000C0000083E30895B79908C08FE295E712
S11302200197F1F700C000008DE2089587EF88BBC5
S1130230B49909C08FE295E70197F1F700C0000077
S11302400E947D001EC0B59908C08FE295E7019712
S1130250F1F700C0000080E30895B69908C08FE26A
S113026095E70197F1F700C000008DE30895B79971
S113027008C08FE295E70197F1F700C000008BE218
S11302800895089595B3906895BB982F907F92BB7D
S113029095B3906495BBEFECF7E03197F1F700C0AC
S11302A0000095B39F7B95BB8295807F82BB85B30D
S11302B0806485BB8FEC97E00197F1F700C00000E4
S11302C085B38F7B85BB08950F931F93CF938C01C8
S11302D0C0E003C00E944201CF5FF801EC0FF11DA2
S11302E080818111F7CFCF911F910F9108959FE1E4
S11302F091BB8233D9F018F4813339F064C083336D
S113030069F1843309F445C05EC082B3816082BB65
S113031082E390E007C0EFE1FEE43197F1F700C01B
S1130320000001970097B9F712BA4DC082B38260FA
S113033082BBCB01880F991F880F991F680F791F03
S113034008C08FE19EE40197F1F700C000006150FE
S1130350710916161706ACF312BA35C082B384605D
S113036082BBCB01880F991F880F991F680F791FD3
S11303700BC09FEFE9E6F8E19150E040F040E1F76F
S113038000C00000615071091616170694F312BAE2
S11303901AC082B3886082BBCB01880F991F880F73
S11303A0991F680F791F0BC02FEF89E698E1215040
S11303B080409040E1F700C00000615071091616BA
S11303C0170694F312BA80E090E008950F931F93F8
S11303D0CF93DF93CDB7DEB760970FB6F894DEBF47
S11303E00FBECDBF84B3806C84BB8FE087BB76C166
S11303F086B3803FE9F386B3803F19F00E949800EA
S113040089830E947D0089810E9442012FE788E34D
S113041091E0215080409040E1F700C000000E942C
S11304207D0080EF88BB80E690E00E94640186B383
S1130430803FE9F386B3803F19F00E9498008A83D5
S11304400E947D008A810E944201EFE7F8E321E0E7
S1130450E150F0402040E1F700C000000E947D0020
S113046080EF88BB8DE690E00E94640186B3803FF4
S1130470E9F386B3803F19F00E9498008B830E94B1
S11304807D008B810E9442018FE798E3E1E0815077
S11304909040E040E1F700C000000E947D0080EF42
S11304A088BB8AE790E00E94640186B3803FE9F349
S11304B086B3803F19F00E9498008C830E947D00CF
S11304C08C810E944201FFE728E381E0F150204043
S11304D08040E1F700C000000E947D0080EF88BBEF
S11304E088E890E00E94640186B3803FE9F386B314
S11304F0803F19F00E9498008D830E947D008D81B9
S11305000E9442019FE7E8E3F1E09150E040F040AF
S1130510E1F700C000000E947D0080EF88BB86E9FF
S113052090E00E94640186B3803FE9F386B3803F84
S113053019F00E9498008E830E947D008E810E9493
S113054042012FE788E391E0215080409040E1F799
S113055000C000000E947D0080EF88BB88EA90E024
S11305600E94640186B3803FE9F386B3803F19F0AB
S11305700E9498008F830E947D008F810E94420117
S1130580EFE7F8E321E0E150F0402040E1F700C05C
S113059000000E947D0080EF88BB8AEB90E00E94FF
S11305A0640186B3803FE9F386B3803F19F00E946B
S11305B0980088870E947D0088850E9442018FE709
S11305C098E3E1E081509040E040E1F700C0000092
S11305D00E947D0080EF88BBE9818E2F90E0FC01B2
S11305E0F197E930F10520F4E65DFF4F0C94E60441
S11305F060E070E01AC060E170E017C068E170E08C
S113060014C060E270E011C068E270E00EC060E304
S113061070E00BC068E370E008C068E270E005C0F9
S113062068E270E002C068E070E0CE010196FC016F
S113063001900020E9F73197AF01481B590B0E9444
S113064022058CEC90E00E9464018FE39CE9019701
S1130650F1F700C000000E947D0088ED90E00E9448
S11306606401EFE3FCE93197F1F700C000000E9458
S11306707D008FED90E00E9464018FE39CE9019777
S1130680F1F700C000000E947D008CEE90E00E9413
S11306906401EFE3FCE93197F1F700C000000E9428
S11306A07D0086B3803FE9F386B3803F19F00E9452
S11306B09800182F0E947D00812F0E944201FFE7BD
S11306C028E381E0F15020408040E1F700C00000C1
S11306D00E947D0080EF88BB103349F080EF88BB17
S11306E00E947D0087EF90E00E94640181CE88E043
S11306F091E00E9464010E947D0089E191E00E94E2
S1130700640186B3803FE9F386B3803F19F00E9409
S11307109800082F0E947D00802F0E9442019FE7CD
S1130720E8E3F1E09150E040F040E1F700C0000060
S11307300E947D0080EF88BB10E0F801F197E9305A
S1130740F10520F4ED5CFF4F0C94E60460E070E0EA
S11307501AC060E170E017C068E170E014C060E2A4
S113076070E011C068E270E00EC060E370E00BC09E
S113077068E370E008C068E270E005C068E270E019
S113078002C068E070E0CE01099628E0FC011192F5
S11307902A95E9F7DE011196FD0101900020E9F7A1
S11307A03197AF014A1B5B0B0E9412050E947D002A
S11307B08AE291E00E94640189850E9442018FE1EE
S11307C09EE40197F1F700C000000E947D0085E3DC
S11307D091E00E9464018A850E9442016A8570E06A
S11307E081E30E947701EFE1FEE43197F1F700C065
S11307F000000E947D0083E491E00E9464018B85E7
S11308000E9442018B8590E00E94EC04BC0182E3CB
S11308100E9477018FE19EE40197F1F700C0000088
S11308200E947D0081E591E00E9464018C850E9414
S113083042018C8590E00E94EC04BC0183E30E9499
S11308407701EFE1FEE43197F1F700C000000E9468
S11308507D008FE591E00E9464018D850E94420134
S11308608A8590E00E94EC04BC0184E30E94770135
S11308708FE19EE40197F1F700C000000E947D0023
S11308808E858033C1F18DE691E00E9464018E85EE
S11308900E94420180EA91E00E9464019FEFE1EE30
S11308A0F4E09150E040F040E1F700C000000E9405
S11308B07D0088E791E00E9464018FE39CE9019741
S11308C0F1F700C000000E947D0089E891E00E94D9
S11308D06401EFE3FCE93197F1F700C000000E94E6
S11308E07D0088E991E00E9464018FE39CE901970F
S11308F0F1F700C00000EFE1FEE43197F1F700C02A
S113090000000E947D008F858033C1F187EA91E069
S11309100E9464018F850E94420180EA91E00E9456
S11309206401FFEF21EE84E0F15020408040E1F7C4
S113093000C000000E947D0088E791E00E946401ED
S1130940EFE3FCE93197F1F700C000000E947D005D
S113095082EB91E00E9464018FE39CE90197F1F737
S113096000C000000E947D0088E991E00E946401BB
S1130970EFE3FCE93197F1F700C000008FE19EE45A
S11309800197F1F700C000000E947D008889803340
S113099021F081EC91E00E946401EFE1FEE43197E3
S11309A0F1F700C000000E947D0081ED91E00E94FB
S11309B0640180E090E060960FB6F894DEBF0FBE4D
S11309C0CDBFDF91CF911F910F910895EE0FFF1FBF
S11309D00590F491E02D0994FC0188279927E89467
S11309E021912032E9F3293010F02E30C8F32B3254
S11309F041F02D3239F4689404C00E940A05820F34
S1130A00911D219120532A30C0F31EF490958195B5
S1130A109F4F08957AE0979F902D879F802D910D89
S1130A2011240895DC01CB01FC01E199FECF06C03D
S1130A30FFBBEEBBE09A31960DB20D92415050408F
S1130A40B8F70895DC01CB0103C02D910E942D0558
S1130A5041505040D0F70895262FE199FECF9FBB17
S1130A608EBB2DBB0FB6F894E29AE19A0FBE0196A5
S1090A700895F894FFCF85
S1130A766F696C31206D6C282A35293A006F696CD0
S1130A8632206D6C282A35293A006F696C20332090
S1130A966D6C282A35293A006F696C2034206D6CF8
S1130AA6282A35293A0044726177657231206E6FBF
S1130AB62E70696C6C733A004472617765723220E9
S1130AC66E6F2E70696C6C733A00506F7764657242
S1130AD6207965732D316E6F2D303A00446F20797D
S1130AE66F75206E65656400746F20616464006DC3
S1130AF66F7265207265636F72643F005965732D6A
S1130B0631204E6F2D3000456E746572207061740D
S1130B1669656E7449443A00546F2072657472694B
S1130B26657665206461746100656E746572207013
S1130B36617469656E7449443A0050617469656EFE
S1130B467449443A00547562652031282A356D6C1F
S1130B56293A00547562652032282A356D6C293A83
S1130B6600547562652033282A356D6C293A005481
S1130B767562652034282A356D6C293A0044726101
S1130B8677657231202D2000506C65617365206392
S1130B966C6F736520746865006472617765722092
S1130BA63120616674657200796F752074616B65B6
S1130BB62070696C6C730044726177657232202D03
S1130BC620006472617765722032206166746572F2
S1130BD60054616B652074686520706F7764657274
S1110BE6005468616E6B20796F752121000048
S9030000FC
